:020000040800F2
:1000000000500020950000089100000891000008B1
:100010009100000891000008910000080000000015
:100020000000000000000000000000009100000837
:1000300091000008000000009100000891000008F5
:100040004FF000544FF400500E4A0F49936943F0AB
:10005000100393614B6823F470034B604B6843F4C7
:1000600000134B60094B0C6100BF1A46013B002A8C
:10007000FAD1064B086100BF1A46013B002AFAD1AB
:10008000F0E700BF0010024000100140FF340C00F8
:10009000FEE700BF124A134908B58A420DD2124842
:1000A00001390346891A21F003010431014453F850
:1000B000040B8B4242F8040BF9D10C4A0C498A42DA
:1000C0000BD200200139891A21F0030104311346B3
:1000D0000A4443F8040B9342FBD1FFF7B1FFFEE75C
:1000E0000000002000000020F400000800000020B4
:0400F00000000020EC
:04000005080000955A
:00000001FF
