:1000000080530020ED5900000DFE0000D95900007A
:10001000D9590000D9590000D9590000000000004A
:100020000000000000000000000000005D5B000018
:10003000D959000000000000055B0000D9590000FC
:10004000015D0000015D0000015D0000015D000038
:10005000015D0000015D0000015D0000015D000028
:10006000015D0000015D0000015D0000015D000018
:10007000015D0000015D0000015D0000015D000008
:10008000015D0000015D0000015D0000015D0000F8
:10009000015D0000015D0000015D0000015D0000E8
:1000A000015D0000015D0000015D0000015D0000D8
:1000B000015D0000015D0000015D0000015D0000C8
:1000C000015D0000015D0000015D0000015D0000B8
:1000D000015D0000015D0000015D0000015D0000A8
:1000E000015D0000015D0000015D0000015D000098
:1000F000015D0000015D0000015D0000015D000088
:1001000081F0004102E000BF83F0004330B54FEAC8
:1001100041044FEA430594EA050F08BF90EA020F35
:100120001FBF54EA000C55EA020C7FEA645C7FEAC8
:10013000655C00F0E2804FEA5454D4EB5555B8BFEB
:100140006D420CDD2C4480EA020281EA030382EA5C
:10015000000083EA010180EA020281EA0303362DEE
:1001600088BF30BD11F0004F4FEA01314FF4801CC1
:100170004CEA113102D0404261EB410113F0004FD3
:100180004FEA03334CEA133302D0524263EB43038A
:1001900094EA050F00F0A780A4F10104D5F1200E28
:1001A0000DDB02FA0EFC22FA05F2801841F1000183
:1001B00003FA0EF2801843FA05F359410EE0A5F157
:1001C00020050EF1200E012A03FA0EFC28BF4CF088
:1001D000020C43FA05F3C01851EBE37101F000453E
:1001E00007D54FF0000EDCF1000C7EEB00006EEB4B
:1001F0000101B1F5801F1BD3B1F5001F0CD34908D5
:100200005FEA30004FEA3C0C04F101044FEA44522B
:1002100012F5800F80F09A80BCF1004F08BF5FEAB2
:10022000500C50F1000041EB045141EA050130BD92
:100230005FEA4C0C404141EB0101013C28BFB1F5A4
:10024000801FE9D291F0000F04BF01460020B1FAEF
:1002500081F308BF2033A3F10B03B3F120020CDAC2
:100260000C3208DD02F1140CC2F10C0201FA0CF0A0
:1002700021FA02F10CE002F11402D8BFC2F1200C05
:1002800001FA02F120FA0CFCDCBF41EA0C019040BB
:10029000E41AA2BF01EB0451294330BD6FEA040404
:1002A0001F3C1CDA0C340EDC04F11404C4F12002EF
:1002B00020FA04F001FA02F340EA030021FA04F301
:1002C00045EA030130BDC4F10C04C4F1200220FA58
:1002D00002F001FA04F340EA0300294630BD21FA96
:1002E00004F0294630BD94F0000F83F4801306BF5C
:1002F00081F480110134013D4EE77FEA645C18BF50
:100300007FEA655C29D094EA050F08BF90EA020FE6
:1003100005D054EA000C04BF1946104630BD91EADE
:10032000030F1EBF0021002030BD5FEA545C05D1E1
:100330004000494128BF41F0004130BD14F5800420
:100340003CBF01F5801130BD01F0004545F0FE4194
:1003500041F470014FF0000030BD7FEA645C1ABFC9
:10036000194610467FEA655C1CBF0B46024650EA00
:10037000013406BF52EA033591EA030F41F400212C
:1003800030BD00BF90F0000F04BF0021704730B5B2
:100390004FF4806404F132044FF000054FF0000187
:1003A00050E700BF90F0000F04BF0021704730B548
:1003B0004FF4806404F1320410F0004548BF40421D
:1003C0004FF000013EE700BF42004FEAE2014FEA72
:1003D00031014FEA02701FBF12F07F4393F07F4F4D
:1003E00081F06051704732F07F4208BF704793F050
:1003F0007F4F04BF41F40021704730B54FF4607463
:1004000001F0004521F000411CE700BF50EA010265
:1004100008BF704730B54FF000050AE050EA01020E
:1004200008BF704730B511F0004502D5404261EB7E
:1004300041014FF4806404F132045FEA915C3FF4BF
:10044000D8AE4FF003025FEADC0C18BF03325FEA5C
:10045000DC0C18BF033202EBDC02C2F1200300FA0D
:1004600003FC20FA02F001FA03FE40EA0E0021FA32
:1004700002F11444BDE600BF80F0004002E000BF7E
:1004800081F0004142001FBF5FEA410392EA030F7F
:100490007FEA226C7FEA236C6AD04FEA1262D2EBC9
:1004A0001363C1BFD218414048404140B8BF5B42CE
:1004B000192B88BF704710F0004F40F4000020F067
:1004C0007F4018BF404211F0004F41F4000121F07D
:1004D0007F4118BF494292EA030F3FD0A2F10102C7
:1004E00041FA03FC10EB0C00C3F1200301FA03F105
:1004F00000F0004302D5494260EB4000B0F5000F28
:1005000013D3B0F1807F06D340084FEA310102F1E6
:100510000102FE2A51D2B1F1004F40EBC25008BF98
:1005200020F0010040EA03007047490040EB000062
:10053000013A28BFB0F5000FEDD2B0FA80FCACF163
:10054000080CB2EB0C0200FA0CF0AABF00EBC25090
:1005500052421843BCBFD0401843704792F0000F7E
:1005600081F4000106BF80F400000132013BB5E7D1
:100570004FEA41037FEA226C18BF7FEA236C21D047
:1005800092EA030F04D092F0000F08BF08467047AC
:1005900090EA010F1CBF0020704712F07F4F04D17A
:1005A000400028BF40F00040704712F100723CBF8D
:1005B00000F50000704700F0004343F0FE4040F4B7
:1005C000000070477FEA226216BF08467FEA236375
:1005D0000146420206BF5FEA412390EA010F40F460
:1005E000800070474FF0000304E000BF10F00043AC
:1005F00048BF40425FEA000C08BF704743F0964393
:1006000001464FF000001CE050EA010208BF7047AD
:100610004FF000030AE000BF50EA010208BF704734
:1006200011F0004302D5404261EB41015FEA010C49
:1006300002BF84460146002043F0B64308BFA3F141
:100640008053A3F50003BCFA8CF2083AA3EBC25323
:1006500010DB01FA02FC634400FA02FCC2F1200242
:10066000BCF1004F20FA02F243EB020008BF20F079
:100670000100704702F1200201FA02FCC2F12002DF
:1006800050EA4C0021FA02F243EB020008BF20EAD4
:10069000DC7070474FF0FF0C1CEAD0521EBF1CEA02
:1006A000D15392EA0C0F93EA0C0F6FD01A4480EAF0
:1006B000010C400218BF5FEA41211ED04FF00063D9
:1006C00043EA501043EA5111A0FB01310CF0004005
:1006D000B1F5000F3EBF490041EAD3715B0040EA2B
:1006E000010062F17F02FD2A1DD8B3F1004F40EBFB
:1006F000C25008BF20F00100704790F0000F0CF0CE
:10070000004C08BF49024CEA502040EA51207F3A91
:10071000C2BFD2F1FF0340EAC250704740F400006C
:100720004FF00003013A5DDC12F1190FDCBF00F05D
:1007300000407047C2F10002410021FA02F1C2F10B
:10074000200200FA02FC5FEA310040F1000053EAA7
:100750004C0308BF20EADC70704792F0000F00F0F5
:10076000004C02BF400010F4000F013AF9D040EAFB
:100770000C0093F0000F01F0004C02BF490011F48F
:10078000000F013BF9D041EA0C018FE70CEAD1538D
:1007900092EA0C0F18BF93EA0C0F0AD030F0004C0D
:1007A00018BF31F0004CD8D180EA010000F00040C1
:1007B000704790F0000F17BF90F0004F084691F07F
:1007C000000F91F0004F14D092EA0C0F01D14202B9
:1007D0000FD193EA0C0F03D14B0218BF084608D182
:1007E00080EA010000F0004040F0FE4040F40000CC
:1007F000704740F0FE4040F4400070474FF0FF0C5F
:100800001CEAD0521EBF1CEAD15392EA0C0F93EAA5
:100810000C0F69D0A2EB030280EA010C49024FEAF7
:10082000402037D04FF0805343EA111143EA1013B0
:100830000CF000408B4238BF5B0042F17D024FF468
:10084000000C8B4224BF5B1A40EA0C00B3EB510F43
:1008500024BFA3EB510340EA5C00B3EB910F24BF2C
:10086000A3EB910340EA9C00B3EBD10F24BFA3EBB1
:10087000D10340EADC001B0118BF5FEA1C1CE0D179
:10088000FD2A3FF650AF8B4240EBC25008BF20F02C
:10089000010070470CF0004C4CEA50207F32C2BF80
:1008A000D2F1FF0340EAC250704740F400004FF01D
:1008B0000003013A37E792F0000F00F0004C02BF4E
:1008C000400010F4000F013AF9D040EA0C0093F018
:1008D000000F01F0004C02BF490011F4000F013B72
:1008E000F9D041EA0C0195E70CEAD15392EA0C0FDA
:1008F00008D142027FF47DAF93EA0C0F7FF470AF12
:10090000084676E793EA0C0F04D14B023FF44CAF54
:1009100008466EE730F0004C18BF31F0004CCAD1E9
:1009200030F000427FF45CAF31F000437FF43CAF25
:100930005FE700BF4FF0FF3C06E000BF4FF0010C47
:1009400002E000BF4FF0010C4DF804CD4FEA400229
:100950004FEA41037FEA226C18BF7FEA236C11D073
:1009600001B052EA530C18BF90EA010F58BFB2EB26
:10097000030088BFC81738BF6FEAE17018BF40F0A6
:10098000010070477FEA226C02D15FEA402C05D15A
:100990007FEA236CE4D15FEA412CE1D05DF8040BDF
:1009A000704700BF844608466146FFE70FB5FFF772
:1009B000C9FF002848BF10F1000F0FBD4DF808ED2A
:1009C000FFF7F4FF0CBF012000205DF808FB00BF1B
:1009D0004DF808EDFFF7EAFF34BF012000205DF875
:1009E00008FB00BF4DF808EDFFF7E0FF94BF0120C2
:1009F00000205DF808FB00BF4DF808EDFFF7D2FFBF
:100A000094BF012000205DF808FB00BF4DF808ED01
:100A1000FFF7C8FF34BF012000205DF808FB00BFCE
:100A20007BB972B90029BEBF00204FF0004106E03B
:100A300008BF00281CBF6FF000414FF0FF3000F0EE
:100A400057B8ADF1080C6DE904CE002909DB002B85
:100A50001ADB0DF05BF8DDF804E0DDE9022304B0F9
:100A60007047404261EB4101002B1BDB0DF04EF85B
:100A7000DDF804E0DDE9022304B0404261EB41010E
:100A8000524263EB43037047524263EB43030DF062
:100A90003DF8DDF804E0DDE9022304B0404261EBFB
:100AA00041017047524263EB43030DF02FF8DDF82C
:100AB00004E0DDE9022304B0524263EB43037047D4
:100AC00053B94AB9002908BF00281CBF4FF0FF31B5
:100AD0004FF0FF3000F00CB8ADF1080C6DE904CE1A
:100AE0000DF014F8DDF804E0DDE9022304B07047EE
:100AF000704700BF10F8012B11F8013B012A28BFF5
:100B00009A42F7D0D01A7047034611F8012B03F828
:100B1000012B002AF9D17047034613F8012B002A54
:100B2000FBD1181A013870472DE9F047064688B006
:100B30000F46904610F0CBF84FF47A73A0FB0345B4
:100B400003FB0155E40B012F44EA45444FEAD53538
:100B500007D1294922462B4630460EF0CBF900201A
:100B600012E0D8F8047025483946FFF7C3FF70B18A
:100B700023483946FFF7BEFF48B1304621493A467F
:100B80000EF0C6F96FF0040008B0BDE8F08720460B
:100B9000294617A3D3E90023FFF742FF05460C4679
:100BA00010461946184A0023FFF73AFF80460F46C1
:100BB000104619464EF660220023FFF731FF8246A9
:100BC0008946104619464FF47A720023FFF728FF32
:100BD000CDE902A9CDE90623CDE90401CDE90087DD
:100BE0000A492A46234630460EF084F9B7E700BF8B
:100BF000005C260500000000DF380100F03801002D
:100C0000F3380100FC38010080EE36001439010091
:100C10001FB512480DF043FA002005F04DFC18B93D
:100C20000F480DF03CFA0CE0002301930393694652
:100C3000012302930DF009FD011E06DA09480DF0AB
:100C40002EFA002005B05DF804FB029B9B07FCD147
:100C5000039909B10448F2E70448E2E708280100D3
:100C600024280100452801005F2801007F28010099
:100C7000012910B50C4603D10EF09EF9204610BD97
:100C8000022906D9126806490EF042F96FF01500E4
:100C9000F5E702D152680349F6E70020EFE700BF0D
:100CA00092280100AC280100012910B50C4603D19F
:100CB0000EF082F9204610BD022906D912680649B5
:100CC0000EF026F96FF01500F5E702D152680349DE
:100CD000F6E70020EFE700BFC2280100AC280100C2
:100CE000012910B50C4603D10EF066F9204610BD5F
:100CF000022906D9126806490EF00AF96FF01500AC
:100D0000F5E702D152680349F6E70020EFE700BF9C
:100D1000C2280100DD280100012938B505460C462E
:100D200003D10EF049F9204638BD022906D91268D0
:100D30000C490EF0EDF86FF01500F5E7506810F073
:100D400099F95028024604D9074928460EF0E0F8E0
:100D5000F1E7064B0649D87028460EF0CBF8002084
:100D6000E2E700BF92280100F4280100F00400200F
:100D700016290100012938B505460C4603D10EF0AD
:100D80001BF9204638BD022906D912680C490EF01D
:100D9000BFF86FF01500F5E7506810F06BF95028B8
:100DA000024604D9074928460EF0B2F8F1E7064B8F
:100DB0000649187128460EF09DF80020E2E700BFB2
:100DC00092280100F4280100F004002030290100DD
:100DD000012938B505460C4603D10EF0EDF8204642
:100DE00038BD022906D912680C490EF091F86FF04F
:100DF0001500F5E7506810F03DF96328024604D964
:100E0000074928460EF084F8F1E7064B064998603A
:100E100028460EF06FF80020E2E700BF922801009C
:100E200048290100F00400207029010008B5044B96
:100E300004490F225A70044A0EF05CF8002008BDE5
:100E4000F0040020A92901008729010008B5044BFE
:100E5000044906225A70044A0EF04CF8002008BDDE
:100E6000F0040020A9290100B829010008B5044BAD
:100E7000044905225A70044A0EF03CF8002008BDCF
:100E8000F0040020A9290100D529010008B5044B70
:100E9000044904225A70044A0EF02CF8002008BDC0
:100EA000F0040020A9290100F229010008B5044B33
:100EB000044903225A70044A0EF01CF8002008BDB1
:100EC000F0040020A92901000B2A010008B5044BF9
:100ED000044901225A70044A0EF00CF8002008BDA3
:100EE000F0040020A9290100242A010010B5044BB8
:100EF000044A054900245C700DF0FCFF204610BD3B
:100F0000F00400203D2A0100A9290100034B0449F7
:100F1000D8229A706FF027020DF0ECBFF004002089
:100F2000562A0100034B0449E2229A706FF01D0219
:100F30000DF0E0BFF0040020562A0100034B0449E5
:100F4000EC229A706FF013020DF0D4BFF004002071
:100F5000562A0100034B0449F0229A706FF00F02E9
:100F60000DF0C8BFF0040020562A0100034B0449CD
:100F7000F4229A706FF00B020DF0BCBFF004002059
:100F8000562A0100034B0449F8229A706FF00702B9
:100F90000DF0B0BFF0040020562A0100034B0449B5
:100FA000FC229A706FF003020DF0A4BFF004002041
:100FB000562A0100024B034900229A700DF09ABF95
:100FC000F0040020562A0100024B034902229A70C5
:100FD0000DF090BFF0040020562A0100024B034997
:100FE00003229A700DF086BFF0040020562A0100FB
:100FF000024B034904229A700DF07CBFF0040020DC
:10100000562A0100024B034905229A700DF072BF67
:10101000F0040020562A0100024B034906229A7070
:101020000DF068BFF0040020562A0100024B03496E
:1010300007229A700DF05EBFF0040020562A0100CE
:10104000024B034908229A700DF054BFF0040020AF
:10105000562A010008B5044B044902221A70044ABA
:101060000DF048FF002008BDF0040020832A010095
:10107000692A010008B5044B044901221A70044A88
:101080000DF038FF002008BDF0040020832A010085
:101090009D2A010010B5044B044A054900241C7028
:1010A0000DF028FF204610BDF0040020B72A0100F3
:1010B000832A010037B5244D244904460DF01AFF58
:1010C0006A780F2A38D8DFE802F0082B372D2F3145
:1010D000333737373737373737351D4A1D492046BD
:1010E0000DF008FF95F902201B4920460DF002FF84
:1010F0002A78012A22D0022A22D01ABB174A18497C
:1011000020460DF0F7FEEB680193AB680093204694
:101110002B79EA7813490DF0EDFE002003B030BDC5
:10112000114ADBE7114AD9E7114AD7E7114AD5E757
:10113000114AD3E7114AD1E71149D0E7114ADEE756
:10114000114ADCE71149DBE7F0040020CF2A010057
:101150003D2A0100A9290100562A0100B72A0100F1
:10116000832A0100252B0100242A01000B2A0100FB
:10117000F2290100D5290100B829010087290100C1
:10118000DC2A01009D2A0100692A0100032B0100CD
:1011900008B500F03DFE024B0020187008BD00BFEE
:1011A000C233002010B5002104460E220D480FF076
:1011B00059FF0C4A042302F8023C0B4B901E5A784C
:1011C0004270DA7802711A799B684271836000F08C
:1011D00033FD064B0649012220461A700DF08AFEA7
:1011E000002010BD02190020F0040020C2330020AE
:1011F000802B010010B50E22044600210D480FF08F
:1012000031FF0C4A032302F8023C0B4B901E5A7824
:10121000996842701A795B8881608380827100F0DE
:101220000BFD064B0649012220461A700DF062FEA6
:10123000002010BD02190020F0040020C23300205D
:101240008A2B010001480CF02ABF00BF942B01003B
:101250007FB5002301A8CDE90133039300F0F8FD29
:101260001A4B1C6914B1039EA64204D918480CF00D
:1012700016FF04B070BDA01BFFF7B4F90546204669
:10128000FFF7B0F901462846FFF7B8FA1149FFF712
:1012900001FA054610480CF002FF104831460CF0E8
:1012A000FEFE0F4821460CF0FAFE2846FFF78CF8A8
:1012B00002460B460B480CF0F2FE0B492846FFF79E
:1012C0009BFB0028D5D00948D1E700BFF0040020DF
:1012D000B32B01000000C842523B0100CC2B01009F
:1012E000EC2B01000D2C010000002041212C0100FD
:1012F00030B585B00446002501A8CDE90155039518
:1013000000F0A6FD204608490DF0F4FDDDE90112CC
:1013100020460DF00BFE2046039A04490DF0EAFD2D
:10132000284605B030BD00BF462C0100592C0100F5
:10133000012938B505460C4603D10DF03DFE204687
:1013400038BD022906D9126813490DF0E1FD6FF08E
:101350001500F5E750680FF08DFE012804D90F49FC
:1013600028460DF0D5FDF2E74FF08044C0B20CF0F6
:101370004AFDD4F880250A4902F0010228460DF002
:10138000B9FDD4F878250749284602F001020DF08E
:10139000B1FD0020D4E700BF92280100702C0100AD
:1013A0008D2C0100EF2C0100014800F069BD00BF49
:1013B0000019002013B50C4B5B780F2B044611D19C
:1013C0000B390F290ED91A230093084A08490B2319
:1013D0000DF090FD07490B22204602B0BDE81040F9
:1013E0000DF088BD02B010BDF00400208729010077
:1013F000192D01004F2D010038B50F4D2B780446F3
:101400001BB100F005FD00232B700C4D2046E97840
:10141000FFF7D0FF0A4B0021184610220FF022FEE2
:101420006A7842706A88828000F006FC204605498E
:101430000DF060FD002038BDC2330020F004002014
:1014400000190020622D01002DE9F041204C237885
:101450000546884617461BB100F0DAFC00232370CE
:101460001C4E2846F178FFF7A5FFB8F1020F08D906
:1014700028463A6818490DF04BFD6FF01500BDE89D
:10148000F0810E22154800210FF0ECFD134A0123D4
:1014900002F8023C737802F8013CB3789370F37859
:1014A0001371B8F1020F3378D370A2F1020405D1A1
:1014B00078680FF0DFFD0A4BA060E360094800F098
:1014C000BBFB284608490DF015FD0020D7E700BFFB
:1014D000C2330020F0040020C228010002190020BD
:1014E0004512000000190020782D0100012938B5AF
:1014F00005460C4603D10DF05FFD204638BD02299C
:1015000006D9126818490DF003FD6FF01500F5E7D4
:1015100050680FF0AFFD5A2804D9144928460DF041
:10152000F7FCF2E7124CE178E0602846FFF742FF53
:101530000E2200210F480FF095FD0E4A0523901E44
:1015400002F8023C63784370A378037123784371F7
:10155000E3788371E368836000F06EFB064B012241
:101560001A700020CAE700BFC2280100982D0100B0
:10157000F004002002190020C23300202DE9F041C0
:10158000204D2B780446884617461BB100F040FCDE
:1015900000232B70B8F1020F08D93A681A49204687
:1015A0000DF0B6FC6FF01500BDE8F081174E204637
:1015B000F178FFF7FFFE0E22154800210FF052FDD3
:1015C000134A022302F8023C737802F8013CF378D4
:1015D000D370B8F1020F33789370A2F102050CD1E9
:1015E00078680FF047FD0B4B3061A860EB6020B9C5
:1015F000094920460DF08CFCD4E7084800F01CFB9C
:101600000020D1E7C2330020BE2D0100F0040020ED
:101610000219002051120000D62D010000190020EF
:101620000B4B00224FF0FF31C3F80022C3F8081320
:10163000C3F81021D3F8102101221A61D3F8102128
:10164000002AFBD00022C3F81021D3F810317047D4
:101650000010004010B5FFF7E3FF044B1B6823B1F7
:101660001B6813B1BDE81040184710BD10190020C9
:1016700010B51C4BD3F80423D104044616D5D3F877
:1016800030219AB10022C3F83021174AD3F8303103
:10169000136801331360826842B1934213480CBF50
:1016A000002240F6CD42002307F0B2FC0D4BD3F8E8
:1016B0000423120714D5D3F80C218AB10022C3F8F1
:1016C0000C210B4AD3F80C31136801331360A26864
:1016D000934205D1FFF7A4FFE368BDE81040184727
:1016E00010BD00BF0010004018190020C0040020E9
:1016F0001C190020114B37B5187011480C4606F024
:1017000007FF104B0E48D3F8002200254FF0FF32A0
:10171000C3F800522146C3F808230FF046F801230E
:1017200002460093064840F2011329460FF06AF87A
:10173000034803B0BDE8304006F0DCBEC5330020EE
:101740006420010000800040444B40F2012284B03C
:10175000C3F850260022C3F83425C3F83825C3F84F
:101760002C2501229142C3F8302528D0022920D00F
:10177000002958D1AB22C3F824254FF0AB32C3F86F
:101780001C250023FF22CDF805308DF808204FF4EA
:101790008272ADF80A2006284FF00102CDF8013020
:1017A0008DF80C2010D804283FD851D04FF4837303
:1017B00017E0CC22C3F824254FF0CC32DFE76A22B1
:1017C000C3F82425264ADAE70F28EFD102228DF844
:1017D00005207F22ADF80A308DF80C308DF80820F6
:1017E0008523204A13809DF807309DF804205B076D
:1017F00043EA82539DF8052043EA0263174A43F007
:101800000803C2F814359DF80A309DF80B101B042C
:1018100043EA01639DF808100B439DF80C1043EA5E
:101820004163C2F8183504B0704740F20232ADF897
:10183000042003228DF80720ADF80A20074A40F261
:101840000311C2F83415C2F838354FF48B73C8E76A
:101850008DF8052040F20713C3E700BF00100040D9
:101860001B81FE58C033002038B50D46FFF76CFFD2
:101870000D4C0F2814BFFF237E23012D237010D0A1
:10188000022D08D01DB9FF21601C04F0E9FC074BB4
:10189000C3F8044538BDFF22CC21601C0FF0E2FBE9
:1018A000F5E7FF22F021F8E7C634002000100040E1
:1018B0000F280DD1A1F10B030F2B0CD801EB8101E7
:1018C00001F62E11054BA1F51661C3F808157047F6
:1018D00001F51661F6E740F66511F3E700100040E8
:1018E00010F1280F10B5044648D000F11E03DAB2FB
:1018F000262A3ED8262B3CD8DFE803F0423B3B3B70
:101900003B3B3B3B3B3B143B3B3B253B3B3B273B78
:101910003B3B293B3B3B2B3B3B3B3E3B2D2F313362
:1019200035373900EC23184AC2F80C35174B1B78B1
:1019300043BB214616480CF0B2FB21461548BDE8D2
:1019400010400CF0ACBBF023EDE7F423EBE7F823F9
:10195000E9E7FC23E7E70223E5E70323E3E70423C2
:10196000E1E70523DFE70623DDE70723DBE70823BD
:10197000D9E709480CF093FB0023D4E7D823D2E73A
:10198000E223D0E710BD00BF00100040C4330020A8
:101990001336010038360100D435010010B5294C4A
:1019A000BFF35B8F54E8003F23F4803244E800210A
:1019B0000029F7D1BFF35B8FD80304D5224B23490D
:1019C000187806F03BF8BFF35B8F54E8003F23F034
:1019D000040244E800210029F7D1BFF35B8F5907C7
:1019E00005D5194B1A4A1B4918780EF03AFEBFF379
:1019F0005B8F54E8003F23F0100244E800210029E7
:101A0000F7D1BFF35B8FDA0605D50F4B124A1149A8
:101A100018780EF026FEBFF35B8F54E8003F23F4E6
:101A2000807244E800210029F7D1BFF35B8FDB050A
:101A300007D5054B064A09491878BDE810400EF055
:101A400010BE10BD14190020C333002000800040D8
:101A5000001000400041014004100040408100405F
:101A600070B50446FFF79AFFA2001A4D1A4928786C
:101A7000D2B202F1804202F580520EF0E8FDBFF3CF
:101A80005B8F002C0CBF022304230126134C06FAA3
:101A900003F354E8002F1A4344E800210029F8D149
:101AA000BFF35B8F0E49287805F0C0FFBFF35B8F53
:101AB00054E8003F43F4803344E80032002AF7D171
:101AC000BFF35B8F287806FA00F0BDE8704005F0A0
:101AD000A1BF00BFC3330020004101401419002002
:101AE0000080004070B5114C054616460846FFF7C9
:101AF00097FDC4F81055D4F8003243F00103C4F840
:101B00000032FFF7EDFE2846094D3146FFF7D0FEC3
:101B10002B7843B10020FFF7A3FF2B781BB1054BB7
:101B200001221A6070BD01232360FBE70010004012
:101B3000C4330020004001402DE9F0411B4C0E460B
:101B400017461D46FFF76CFDC4F81005D4F80032A7
:101B500043F02103C4F80032154BC4F8043539466C
:101B6000FFF7F2FD3146FFF7A3FE124B124E0022A3
:101B70001A604FF48053C4F80433337883B10120E2
:101B8000FFF76EFF33785BB10C4B01221A6055B141
:101B9000BDE8F0410A484FF4A022002307F038BA0C
:101BA00001236360F3E7BDE8F08100BF001000404F
:101BB000C633002018190020C43300200040014023
:101BC000C0040020B0F5A07F10B50C4619D10978EB
:101BD000032917D1154B607894F9041001221A706B
:101BE000134B1A78FFF77EFF6279A0790F4B002123
:101BF00019700F490B780133DBB2834298BF1A4644
:101C00000A7010BD04290CD1084B09496078097885
:101C100001221A7022790023FFF78EFF2279607962
:101C2000E4E7BDE8104003480CF039BAC4330020A3
:101C3000C53300205A3601002DE9F3410378052B06
:101C400047D8DFE803F0030C4952595C427990F918
:101C50000410407802B0BDE8F041FFF743BF44797B
:101C6000457890F904708679D0F80880FFF7D8FCA1
:101C700028462146FFF7F8FD062D5B4C06D8042DBB
:101C800006D8D4F8003243F0210307E00F2DF8D135
:101C9000D4F8003243F4001343F00103C4F80032D7
:101CA0003846C4F81055FFF71BFE504A3146284607
:101CB000FFF7FEFD00231360C4F80C31D4F80C319B
:101CC000B8F1000F02D00823C4F80433464B0122B8
:101CD0001A6002B0BDE8F0818368027941794078EA
:101CE00002B0BDE8F041FFF727BF8168407902B03C
:101CF000BDE8F041FFF7FEBC81680079F7E7447862
:101D000090F80580856890F904708679FFF788FC63
:101D100020464146FFF7A8FD334BC3F81045D3F8E2
:101D2000002242F00302C3F800223846FFF7D8FD34
:101D300031462046FFF7BCFD2D4A2E4B12881B5D15
:101D40002D485343C5F164045C43B4FBF5F41C44D3
:101D500006F0DEFB0020FFF783FE284B2648D3F871
:101D6000002200254FF0FF32C3F800522146C3F88D
:101D700008230EF008FD0095024602231E480121AB
:101D80000EF040FDEFF31186202383F31288BFF39A
:101D90006F8F1B4B1B4C01251D60207805F030FE1A
:101DA00020B1207805FA00F005F03AFEFFF7F6FDC5
:101DB0000D4A154920780EF04AFCBFF35B8F134B98
:101DC00053E8001F41F4807143E80012002AF7D164
:101DD000BFF35B8F23780120984005F01BFE86F34C
:101DE0001188BFF36F8F74E7001000401C190020AA
:101DF000C0330020424D01006420010000800040FB
:101E000000400140C33300204481004014190020E9
:101E100010B50C480C4C06F07BFB0A480EF0AFFCEA
:101E20000A4B207800221A7005F0EAFD20B12378D1
:101E30000120984005F0F4FDFFF7B0FDBDE810402B
:101E4000FFF7EEBB64200100C3330020C433002041
:101E5000084B094AD3F8103503F00F030F2B14BFBA
:101E60004FF480737F23C0E90023044B1B68836019
:101E7000704700BF00100040C63300201819002032
:101E800030B51B4A87B04FF40073CDE903230590AA
:101E900003A9184A0446184806F008FB174B984255
:101EA000014602D016480CF0FAF80022062108205C
:101EB00000250DF0B6FF2346124A009506210120A9
:101EC0000DF0B7FF012003F06FFE0F480EF0D4FBBA
:101ED0000A4B984206D00D480CF0E1F86FF00D0067
:101EE00007B030BD0A4B0C341C602846F8E700BF31
:101EF00040420F00C51B0000642001000000AD0B34
:101F00007436010071160000C333002095360100BD
:101F1000101900202DE9F04F91B08407009302F0D2
:101F200004030293C2F3C20303F10103DDF868A0C6
:101F3000039205460E46059340F09D81041D00283E
:101F40004AD101F00706341DC6F10806009B0027A0
:101F50005A1E4FF004084FF0FF3301930497B9461F
:101F6000BB4643460DB1009921600598002800F357
:101F7000D78090480099814203D38F488142C0F0B6
:101F8000CF80039911F0020CA4EB050040F0D6803D
:101F9000B9F10F0F00F2CF80002D00F0D68009F1CB
:101FA00040010DEB010EC0F3870001990EF8200CE3
:101FB0000EF8101CBCF1000F00F0C38060F07F0031
:101FC0000EF8200C013709F10109C5F108010434AC
:101FD00006914FF6DA7E8CE00729B7D86FF01B0028
:101FE00011B0BDE8F08F7A285BD84B280FD847286E
:101FF00057D829282ED8252850D052D8202818BFA5
:1020000023280CBF4FF0010B4FF0000B71E04C3850
:102010002E2846D8DFE800F06D4545454545454545
:102020004545454548454545454545454556454849
:10203000485656566D486A456D4518481845457FBF
:102040007C48454548457C0000204FF0000B4FF090
:10205000040835E02A38C0B2012101FA00F010EA84
:102060000E0F46D110F0625C2CD110EA010B40D06B
:102070006046013C4444B4FBF8F408FB04F425B189
:10208000A3EB050CA444B445A8D8002870D005994A
:10209000013905915AF8041B009163E70199013950
:1020A00001914FF0000B24E012F8010C6C2834D1A0
:1020B00012F8023C00206C2B8346C8D14FF0080870
:1020C0004346D6E70AF1070A2AF0070A0734FAE876
:1020D00002BC24F0070435B106982044B0423FF614
:1020E0007DAFC4E900BC08344FF0000B4FF0080886
:1020F000434612F8010F002853D0BBF1000F7FF4C4
:1021000072AF2528F5D1019B013301934FF0010BEC
:102110004FF00408ECE7584697E700208346A8E70D
:10212000039988077FF551AF601B4FF0010CB0F5A4
:10213000007FFFF42DAF6FF0150051E74FF0000C5A
:10214000F5E70498013004903DE7BCF1000F01D0A1
:10215000013638E70298023600287FF434AF009841
:10216000CDE90632FEF7D8FCDDE9063206442AE75F
:10217000042B08D10AF1040015B1DAF8001021602F
:1021800004348246B5E70AF1070323F0070303F19D
:10219000080A1DB1D3E90001C4E90001083408238D
:1021A000A7E7631BB3F5806FC5D23DB9A6F108045C
:1021B000E01815E734160100AC4D0100029A2860C2
:1021C0009B082B709DF81030AAB1EB70AF702FB147
:1021D00008A80022C5F1010C91450ED1C5F10103FB
:1021E0000DF120084FF0000A01930DF1300BD1459D
:1021F00012D1601BF4E66B70E8E710F8013B19069A
:1022000008D50CEB040EB64503F07F033FF6E6AEAF
:1022100004F8013B0132DFE71FB198F90020002AE2
:1022200017DB029BD3B11AF80B2004F8012B002214
:10223000019B18191044B0423FF6D0AE98F8000048
:1022400004F8010B0099039220460EF0E4FE039A75
:1022500014440AF1010A08F10108C8E798F80020BF
:1022600055F822300093029B45F822300098FEF783
:1022700053FC421CDCE76FF00D00B1E62DE9F04F96
:1022800097B000AFC7E90A3205468A4649B90378D4
:102290004678807800EB83002844564524D8A0EB8C
:1022A000050AD7F8803095F80280D7F8804003F00F
:1022B0000103FB61EB787B62B8F1000F0CBF0024D7
:1022C00004F001041BB1D7F880309A0715D4A4B9E3
:1022D000FB6A1BB1BA6A51462846984756463046B3
:1022E0005C37BD46BDE8F08F441C2046FEF714FC69
:1022F000013020440AF1010ACFE7D7F88030C3F358
:10230000C0033B622B78BB619B003B616B687B61C8
:10231000BB6905EB830BFB6A002B7BD15646D84487
:10232000BCB11C461BF8013B55F82300FEF7F4FB3B
:10233000D7F88430013043B1D7F88830A34282BF48
:10234000D7F8843023F814000134C3450644E9D19A
:10235000D846D7F8803013F0050F0CBF4FF0020BB2
:102360004FF0010B4FF000097B6A9945B7D298F8FE
:10237000013055F823A0B04B9A4508F10208C0F08F
:102380004F81AE4B3A6A9A452CBF002301232AB3F2
:1023900018F8021C7869FB620BF062FEFB6AE8B178
:1023A000A748036813F0060F14D0EA468AB06A46BD
:1023B000A44B05937B69CDE906314FF40073ADF86A
:1023C0002030A14B42F8103F00234FF4125100F08F
:1023D000C7FDD546023E09F10109C5E723B1FB69F6
:1023E00033B9A6EB0B06F6E7D7F880309B07F2D59A
:1023F0005046FEF791FBD7F884304BB1D7F88830C0
:102400009C423FBFD7F88420431C22F8143001348B
:102410000644E0E7002C69D1B8F1000F6CD0D7F882
:10242000803058076BD5C14607F1480042465946EF
:102430000EF0F1FD0BEB0803FB6000220233796A1A
:102440008A425ED3D7F8802095F801B0F9699207E7
:1024500004EB0B03DBB254BF4FEA59020022002900
:1024600040F0A680D7F8801011F0040F14BF494641
:1024700000216B70A970EA703969BA6AFB6A284654
:102480009847061EFFF62BAFBB692B707B6AEB707B
:102490004946BA6AFB6A85F801B085F8028007F1FF
:1024A00048009847B0F10009C0F2B6803B697A6AEB
:1024B000786A03EB4201FB68BA6A414403EB4000CF
:1024C000AAEB0101FB6A98470028C0F2A780B1443B
:1024D00009EB00064FF0000B07F1380AA34569D35A
:1024E0000021BA6AFB6A08469847F8E644464FF06E
:1024F000000907F1380099E74446C1469AE7A1462A
:1025000098E713F8016CDFF830C155F8260013F88E
:10251000021C6045C0F08A80DFF820C16045386A3F
:102520002CBF4FF0000B4FF0010B38B17869C7E9B1
:1025300001320BF095FDD7E90132F0B9BBF1000F84
:102540001ED0F96949B1611C04F1280007F130047B
:10255000041904F8206CCCB20FE0D7F880104907BA
:102560000BD509F1280007F1300C09F1010100EB4E
:102570000C0909F8106C5FFA81F9013202335EE749
:10258000D7F880008007DED409F1280C07F1300E5F
:10259000F44409F101000CF8101C07F1580151FA3C
:1025A00080F009F102095FFA89F900F8106CE4E79C
:1025B00000215EE71BF80A3087F8373055F8239082
:1025C000D7F884302BB3D7F888309B4521D2D7F881
:1025D000843033F81B80BA6AFB6A012107F13700A7
:1025E000984700281ADB0644B8F1000F06D1484688
:1025F000FEF792FA00F101081FFA88F8BA6AFB6A3E
:10260000414648469847002808DB06440BF1010B79
:1026100064E74FF00008DEE74E4660E606465EE6F9
:102620003B6A002B3FF4E0AE0023B1E6386A002895
:10263000A6D04FF0000B79E734160100AC4D010035
:10264000B8080020B736010004000001014B1860F3
:10265000704700BF040500202DE9F047058B0446B4
:10266000280717460CD501290CBF45F0100545F089
:102670002005258387F31188BFF36F8FBDE8F087AE
:10268000022905F0070540F0948020460BF07BFFFF
:10269000052864D801A353F820F000BF7526000078
:1026A000B32700005F270000212700003B27000020
:1026B0004D27000001F007035A1F012A1FD80022EE
:1026C00021F00701062BD4F8008089B2C4E900226A
:1026D00009D1434603E0628B013262831B68002B01
:1026E000F9D141F00201218320460BF04CFF4FF05D
:1026F000000900286DD041F02001218369E0042BFE
:102700000AD121F0070189B2218320460BF03BFF5B
:1027100010B141F0200121834FF00008C14658E07C
:102720002369D3F80090238B23F0070343F00603BB
:1027300023834FF0000846464BE02369D3F804900A
:10274000238B23F0070343F00403F1E72369D3F855
:102750000890238B23F0070343F00503E8E74FF0CD
:102760000008C146E7E7012243F00803238387F30B
:102770001188BFF36F8F002A3BD1B8F1000F4AD107
:10278000B9F1000F02D02D492046C847EFF3118759
:10279000202383F31288BFF36F8F238B23F008036A
:1027A0009BB22383D9063FD523F01002228303F086
:1027B00007056669218B002EBFF67CAF0023D4F895
:1027C000008021F00701C4E9003341F001012183B9
:1027D0009946238B03F0070AAA4502D0A268002A73
:1027E000C1D1B8F1000F02D1B9F1000FDAD0002247
:1027F000BAE7A1680029C0D00D680029BDD04F6894
:10280000334652462046B8471DB12B6829461D461F
:10281000F3E72B46FAE74146334652462046D8F8BE
:1028200000800BF0DCFEA8E79A067FF523AF23F0CB
:102830002002228303F0070527E700BF0BE6000014
:102840002DE9F047DFF85480044607464FF00109B0
:1028500094FAA4F5B5FA85F509FA05F32E0108EB0B
:1028600005156FEA030A24EA03042B7B63B158F8C9
:1028700006301B696BB94644042273682846196800
:1028800007EA0A0700F02CFB002CE1D13846BDE82E
:10289000F087284698470028F6D1ECE7AC180100ED
:1028A00010B50F490F4888B000220EF012FA00222E
:1028B0000023CDE9062300240E23CDE90334CDE91E
:1028C0000144094B094900944FF44072084806F04E
:1028D00067FC0849064806F0A1FB204608B010BD79
:1028E000F9280000380E0020392C00004036002066
:1028F000780900206B370100014806F0CDB900BF10
:102900005C0900202DE9F04780461F480F460BF078
:10291000D1FF0646002830D000252846BDE8F087C4
:10292000237B6BB12368DB680BB120469847236893
:102930001B69D3B9636804221968204600F0D0FAF5
:10294000013610344C45EBD3B8F1000FE5D0002D23
:10295000E2D02846FFF774FF0546002FF7D000218C
:102960004FF4A4700EF039F9F1E72046984700289B
:10297000E0D00AFA06F31D43E2E7044CDFF81090BA
:1029800005464FF0010ADDE730190020AC180100C0
:10299000CC180100014B53F8200070478020010043
:1029A00008B5034608462BB1044A136000F044FD05
:1029B000002008BD6FF01500FBE700BF08050020F0
:1029C00010B5044C237813B9034806F065F90123C8
:1029D000237010BDC63500205C09002010B50446E8
:1029E0000B480BF067FF5CB1BFF35B8F094B53E8FB
:1029F000001F013943E80012002AF8D1BFF35B8FB2
:102A000005480EF072F90548BDE8104006F044B9DB
:102A1000281900202C190020380E00205C09002005
:102A2000064BBFF35B8F002253E8000F43E8002101
:102A30000029F9D1BFF35B8F704700BF2819002030
:102A400070B5FFF7EDFF084C084E0546B44200D3C1
:102A500070BD63685B792BB123685B6813B129464D
:102A6000204698471034F1E7AC180100CC1801005B
:102A700010B5044C044920460BF026FC034B1C60A7
:102A800010BD00BF740800206C2001002019002038
:102A9000094A0A4808B500231370094A1360094A15
:102AA0004FF400411360FFF77BFFFFF7E1FFBDE844
:102AB000084000F069B900BFC7350020B1E8000048
:102AC000281900202C19002001460022014800236B
:102AD0000BF01BBC7408002001480BF0B2BC00BF17
:102AE00074080020024B014618680BF0F9BC00BFC7
:102AF0002019002001480BF02EBD00BF74080020F3
:102B00002DE9F041354B1878002864D0FFF7E4FF39
:102B1000044698B1BFF35B8F314B53E8001F013976
:102B200043E80012002AF8D1BFF35B8F2D4DDFF888
:102B3000B88045452DD32046FFF7D4FF2B4B2C4CB6
:102B40001B68002B19DD0EF0C2F84FF47A72A0FB5F
:102B5000020302FB0131C30BD4E9002043EA4143E5
:102B60009B1A4FEAD13140F2E93261EB0001934206
:102B700071F1000101D3FFF763FFD4E9003213F5CF
:102B80007A7342F10002C4E90032BDE8F041FFF778
:102B9000B1BF6B685B793BB121784B0706D52B68D9
:102BA00021461B68284698471035C2E720462688EC
:102BB000C1F3C20700F0B2FAC6F382160246002E35
:102BC000EDD00028EBDB01233946284600F0A2F9BE
:102BD000B042E9D3E3E7BDE8F08100BFC63500208D
:102BE0002C190020AC180100CC1801002819002075
:102BF000300E002070B50D4D297861B90120FFF726
:102C000081FE0B4C0B4EB44206D3FFF779FF002830
:102C1000FBD101232B7070BD63685B791BB1236806
:102C200020469B6898471034EDE700BFC735002069
:102C3000AC180100CC18010000212DE9F84308462A
:102C4000FFF760FE044638B340F267684FF00009B2
:102C500006F032FD194B186030B1194B1B68092B77
:102C600002DD184806F018F8174F002544B1204639
:102C7000FFF7E6FD044618B94FF0FF384FF0FF3973
:102C8000FFF73EFF064628B9B5B90E4842464B4607
:102C900006F036F83546E9E74FF0FF384FF0FF39D8
:102CA000D6E72B689B691BB100221146284698473E
:102CB0001035BD42F5D3E8E7044DFAE724190020AA
:102CC0002C1900205C090020CC180100AC18010070
:102CD00013B518480BF0EEFD174B1B7873B1EFF3EB
:102CE0001184202383F31288BFF36F8FFFF708FF4F
:102CF00084F31188BFF36F8F02B010BD0F4B1B68B8
:102D0000002BF9D050B900220023CDE900230C4854
:102D10004FF40042002306F0DFFFEDE70928EBD176
:102D200007480DF0E2FF074802B0BDE8104005F08B
:102D3000B3BF00BF2C190020C73500202419002084
:102D4000380E00205C09002010B5064B1B680446B5
:102D500098472146A06004480BF054FBBDE81040A2
:102D6000FFF7B6BF0805002074080020044A054B91
:102D70009B1AB1EBD30F34BF52F8310000207047DB
:102D800054180100AC18010030B50949094B0A4834
:102D90005B1ADB08002204319A4200D130BD11F8E1
:102DA0003250046865F3020440F8044B0132F3E743
:102DB00054180100AC180100B8080020F8B50B4FFA
:102DC0000B4BDB1B0646DD080024AC4203D14FF061
:102DD000FF342046F8BD57F8340020B13146FDF7E6
:102DE00089FE0028F5D00134EFE700BF5418010038
:102DF000AC18010000282DE9F047884615461F460B
:102E00001DDADFF89890264E4FF0000AA6EB09066F
:102E100036095446B24509F1100902D12046BDE8F1
:102E2000F08759F80C0C3B4600792A464146FFF7DB
:102E3000E1FF844238BF04460AF1010AEAE7194B70
:102E4000194AD21AB5EBD20F26D203EBC5031C796F
:102E5000BC4228BF3C46154EC0B200EB400056F8BD
:102E600025300722824023EA020304F00702824051
:102E700013430021032223FA02F000F007008142ED
:102E800002F1030238BF01461E2AF4D123F00703E2
:102E90000B4346F82530C1E70024DCE7AC180100FD
:102EA000CC18010054180100AC180100B80800202B
:102EB000F8B5094D094BED1A06460F46ED080024FA
:102EC000AC4200D3F8BD002122B23B46304601346B
:102ED0000BF010FDA4B2F3E7AC1801005418010088
:102EE00038B50B4BC31A0D461B111146426801330E
:102EF0001371436804469971FFF7DAFF63681D6038
:102F0000636801225A71BDE83840FFF759BD00BF20
:102F1000AC18010070B14168097973B1002A17DB60
:102F2000CBB20C4951F8220003EB4303D84000F028
:102F3000070070474FF0FF31EFE707490748401A95
:102F4000B2EBD00F3ABF01EBC201087918467047C7
:102F500004207047B808002054180100AC18010084
:102F60002DE9F04F8FB004AFC1F34A26B8600D468B
:102F700090467B600C0D002E65D04FF000090A23AF
:102F80004FF0040B07F1140AFE60C7E90799C7F870
:102F900024900093CDF808B0CDF804A007F11C03ED
:102FA000F9684A464046FFF769F9B0F5006F0346F5
:102FB00020D32948036813F0060F17D06C468AB057
:102FC000D8F8041004AB254DC3E9055140F2FF7158
:102FD000D9611A464FF400711984214B42F8103F11
:102FE0004FF412514B46FFF7BBFFA5462C37BD46A9
:102FF000BDE8F08FC0F30A0604F11700184420F072
:10300000070080083B60FFF75FFD66F35325044629
:1030100080B13B68134A00F11001C7E90839F96132
:10302000CDE901AB0A230093F96807F11C03404680
:10303000FFF724F966F353257B68B9682A462046D2
:103040000BF082FCD2E704F1170020F007008008A3
:10305000FFF73AFD0446EDE7C40800208037010081
:10306000040000011DE900002DE9F04F87B0DDE903
:10307000127ADDE9106B0546884614469946DFB1A1
:103080001021CDF800A03B465A460020CDF814A0F0
:10309000FEF740FFB0F5006F01460FD31D480368EF
:1030A00013F0060F32D01C4A40F2FF73022107B022
:1030B000BDE8F04F0BF0A1BC3946384604F00703D9
:1030C00005F00704E40044EA831444EA402406F1CE
:1030D0001700084420F0070080080391FFF7F4FC74
:1030E00044EA0654054640B13FB10399CDF800A02B
:1030F0003B465A461030FEF70DFF4B4622464146EE
:10310000284607B0BDE8F04F0BF01EBC07B0BDE885
:10311000F08F00BFC4080020BF370100406820B115
:10312000034BC01A40F38F0070474FF0FF307047D9
:10313000B80800200EB403B503AB014653F8042BC6
:103140000448019302F068FF02B05DF804EB03B09D
:10315000704700BF45EA0000CA0605D48B064CBF85
:1031600002490349FFF7E6BF704700BF523B010029
:10317000002B01002DE9F04F89B09846149B06936F
:10318000DDE915A39DF84C90179F059204460D4666
:103190000493B9F1000F00F0B08007F48073079337
:1031A0000BF0A6FB07F0020B0246002874D078490A
:1031B0002046FFF7BFFF0646BBF1000F08D017F00F
:1031C000440F6BD173492A462046FFF7B3FF0644EC
:1031D00007F0010353B1704B704953F82920704B2D
:1031E0002046002A08BF1A46FFF7A4FF07F48073A1
:1031F000002B07F0080318BF4FF00008002B79D010
:10320000684B694953F829202046FFF793FF05468C
:10321000059B2BB165491A462046FFF78BFF0544F5
:10322000B8F1000F05D0624942462046FFF782FF01
:10323000054460483544069B1BB15F4922460AF0AD
:10324000DEFE049B002B00F08E80DDF810803946F6
:10325000B8F1100F204628BF4FF01008FFF77CFF91
:103260000026B54250DC002633461AF803205349A5
:103270002046FFF75FFF0136102E4BD0710703D1B8
:103280004F492046FFF756FF46453346EDD34D499B
:103290002046FFF74FFFEEE706468DE74A4B1868DA
:1032A000002894D0494B4FF47A7B1B68B5FBF3F5AB
:1032B0004FF46163B5FBF0F100FB11550BFB05F515
:1032C0004FF03C0CB1FBF3F203FB1211B5FBF0FE27
:1032D000B1FBFCF300FB1E550CFB13110BFB05F5BA
:1032E0000091B5FBF0F53A49CDE901E52046FFF73D
:1032F00021FF6CE707F008058AE7B8F1010F0CBF62
:103300002C4834484D4696E72D492046FFF712FFDA
:103310000136A6E7304920460026FFF70BFF33466B
:103320001AF803202D49A2F120035F2B28BF2E227B
:103330002046FFF7FFFE0136102E0DD0720703D195
:103340001F492046FFF7F6FEB0453346E8D81C4932
:103350002046FFF7EFFEEEE7049BB3EB0803C24401
:1033600004937FF472AFB9F1000F0AD0FB0704D5C4
:103370000B4A0A492046FFF7DDFE39462046FFF793
:10338000EBFE204609B0BDE8F04F0BF04EBB00BF8E
:10339000FC37010000380100902001003B3C010097
:1033A000F7370100A4200100253801002B38010067
:1033B0002F38010045EA0000196000003438010090
:1033C0003C3801003A380100381900203419002037
:1033D000093801007BEA00003E3801004038010056
:1033E00073B542F20F738B4228BF0B4605680F4A34
:1033F00004460521684609F0C5FA63680C495B6814
:1034000006460B2228460BF002FB636832466946EB
:1034100028465B680BF0FBFA636806495B681B2271
:1034200028460BF0F4FA02B070BD00BF88470100D7
:103430006E4D0100524D0100074A002101239042C8
:1034400006D8064A01B901231360054B186070477E
:1034500040085B000121F2E740420F0034190020D0
:1034600038190020014B01221A707047C83500201E
:10347000014B002019607047501900200148FFF7E8
:10348000AFBF00BFD420010010B5064B18680C4632
:10349000FFF780FA21460346BDE8104002480F229C
:1034A000184700BF50190020D4200100F8B5094D7D
:1034B000094B0A4ED5E9004701221A700CB92C605D
:1034C000F8BD214630463A4600F01EF8241A06445C
:1034D000F4E700BF44190020C9350020CA35002098
:1034E00010B9074B18707047064B1B781BB141F29F
:1034F00088300DF0AFB9A42000210DF06EBB00BFE5
:10350000C8350020C93500202DE9F047DFF880904C
:10351000204E80460F46042599F80040ACB90DF0C6
:103520008CF93A4682464146204605F063F8044647
:1035300050460DF08AF9ECB10123337099F8003050
:103540007BB93C462046BDE8F0873A46414600201C
:1035500005F050F80446EEE72846FFF7C1FF6C1E61
:103560002546002005F090F80028EAD03378002B9B
:10357000F2D1E6E7337833B1013D2846FFF7B0FFDB
:103580003378002BC8D13378002BDAD0DAE700BFCC
:10359000C9350020C8350020014B0360002070476A
:1035A000E420010010B504460DF023F8034902465B
:1035B00020460BF09FFC002010BD00BF8A380100A0
:1035C00037B5134600220192044601AA58680A2121
:1035D0000BF010FF019D95B920EAE0744FF4004C08
:1035E000294640F2E7304FF47A720023E4FB0C01E5
:1035F000FDF766FA0DF0F1FA284603B030BD2A4611
:10360000024920460BF084FC019DF5E7B638010025
:1036100008B5034A03490BF06DFC002008BD00BF4C
:10362000A6390100AD3901002DE9F3411746002309
:10363000044601AAB86801930A210BF0DBFE019D44
:10364000C6B24DB12A46144920460BF061FC019DDB
:10365000284602B0BDE8F081042E09D90F49324650
:1036600020460BF055FC20460BF0A6FC0125EFE7A9
:103670007868FFF7A3FBB0F1000804DA7A6808491C
:1036800020460BF045FC002133460FFA88F208462D
:103690000BF030F9DCE700BFD8390100FF39010039
:1036A000163A010010B5044604F07EF807490246B8
:1036B00020460BF01FFC204605490BF01BFC05487B
:1036C000214606F041F9002010BD00BF753A010007
:1036D000943A0100D9360000F0B58FB0D0F8A07050
:1036E00004460D460DF0CCF9064605F0E5FF204BEB
:1036F0002049214A002E08BF1E46844218BF0A46B0
:10370000234628461D4900960BF0F4FBD4E90A2312
:10371000CDE90023284694F90E30227B18490BF09E
:10372000E9FB06A92022204605F088FC636E1549B6
:10373000024628460BF0DEFB05A920460DF0AEF947
:10374000024628B1104928460BF0D4FB0FB0F0BD5B
:10375000059B6422F91A4A430091B2FBF7F20B4928
:10376000CDE9017228463A460BF0C4FBEEE700BFF4
:103770009E3A01003C380100C74A0100A13A01000D
:10378000AD3A0100D93A0100F03A01001D3B0100B9
:1037900030B591B008AD04462022002128460DF036
:1037A00061FC1A22202128460DF05CFC21461048BD
:1037B00006F0CAF807AA4FF400610E480DF062F94E
:1037C000079A0095C2F5006164234B43DB0A059319
:1037D0004FF40063CDE90132064ACDE903132046D8
:1037E00005490023403A0BF085FB002011B030BDA5
:1037F000FD370000004200206E3B010070B504461A
:10380000D0F8A06088B00D4607A90DF047F9024630
:1038100028B10F4928460BF06DFB08B070BD20465B
:103820000DF02EF9079B0096F11ACDE90131094BF5
:1038300064224A43002818BF0346B2FBF6F2064949
:10384000CDE90362284622460BF054FBE5E700BFB2
:10385000F03A01009E3A0100B73B01002DE9F04328
:1038600087B00446684604F02FFF009F264A1823BD
:1038700003FB0077082120460BF02FFB009DBD4283
:1038800003D3002007B0BDE8F0832B680BB11A7892
:1038900032B92B461D4A142101A809F073F801AB77
:1038A0001B4A082120460BF018FB28460CF0D7FFD6
:1038B000184A194B0821002808BF1346174A20460A
:1038C0000BF00BFB6B699BB11E688EB133687BB14B
:1038D000134A082120460BF000FBB1464FF00008C8
:1038E0003368434506D80F4A082120460BF0F5FA05
:1038F0001835C4E759F8043F0B4A082120460BF05D
:10390000ECFA08F10108EBE72A3C0100343C010025
:10391000393C0100213C01001B3C01009A4201009E
:103920003E3C0100523B01003A3C01002DE9F041D0
:103930001446884607461022606800210DF071FC8D
:10394000B8F1020F06461DD9A0680A2200210DF029
:1039500068FCC5B2204A2B46082138460BF0BDFA58
:10396000B8F1030F1ED8102D0ED0202D0FD0082D2A
:103970000FD13378DBB2194A082138460BF0ADFA83
:1039800000200DE02025E5E733889BB2F3E733689C
:10399000F1E73846124A08210BF09FFA6FF0150044
:1039A000BDE8F081E068102200210DF03AFC0D4ADC
:1039B00003460446082138460BF08FFA102D06D036
:1039C000202D07D0082DE4D1E4B23470D8E7A4B29A
:1039D0003480D5E73460D3E77F3C0100AA3C010086
:1039E000943C0100BB3C01002DE9F04786B0002368
:1039F0000193504B91460122074688461A6002F017
:103A00004DFB4FF0FF3520262C4649464A4A40469A
:103A100002F068FB411C06D16A1C41D14749384677
:103A20000BF076FA17E073281AD0772828D061288F
:103A300011D1DFF80CA101AADAF8000010210BF077
:103A4000D9FC019B0546002BDFD0DAF800203D4968
:103A500038460BF05DFA6FF0150006B0BDE8F08750
:103A6000DFF8DCA001AADAF8000000210BF0C2FCAC
:103A7000019B0446002BC8D0DAF800203249E7E762
:103A8000DFF8BCA001AADAF8000000210BF0B2FCBC
:103A9000019B0646002BB8D0DAF800202B49D7E767
:103AA000631C01D12A49BAE75FFA86F8C6F3C40657
:103AB000002C3DD0A64213D802AB2A46701B0CE066
:103AC000B8F1100F1BD0B8F1200F1ED0B8F1080FBD
:103AD00028D1117819703244334481181029EFD954
:103AE000102CA14628BF4FF0100929464B4602AAC8
:103AF000384600F07BFF1035A4EB0904D8E71188A5
:103B000089B21970090A5970E5E7116819704FEA0E
:103B1000112C83F801C04FEA114C090E83F802C042
:103B2000D970D8E70B4A082138460BF0D6F992E74E
:103B3000204692E7A4050020093D0100103D010048
:103B400024220020CF3C0100E23C0100F53C0100B2
:103B50002D3D0100943C010070B50D4E04463378B4
:103B60000D4629B123B1BDE870400A490BF0D0B928
:103B700083F0010333702BB1074920460BF0BAF9EB
:103B80000123337029462046BDE870400BF031BA5E
:103B9000DA350020473D0100823D010070B5044642
:103BA0003B480378182B02D10B78112B31D0013A06
:103BB0000B468D189D4225D18B5C0A780370A2F1CB
:103BC0003003092B334C04D922F02003413B052B51
:103BD00004D823683049CA54013323602368022B78
:103BE00033D110222C4800210DF01BFB2B4A136807
:103BF00003F8010B13602A4A136801331360002392
:103C0000236022E013F8016B182ED3D11E78112EF9
:103C1000D0D1234D23492A6820460BF06BF920466A
:103C20000021FFF799FF204B187870B91F4A2B68C5
:103C30001168042B0ADC08B111602B6013F003013A
:103C40000BD1126813681BBA136070BD086800BA04
:103C500041F8040B043B0120EBE75B4203F0030354
:103C600058BF5942022904D1126813885BBA9BB22B
:103C7000EAE70329E9D1106802681104C2F3074397
:103C800001F47F010B4302F47F4213430360DCE73E
:103C9000DB35002054190020DD350020601900209C
:103CA00058190020AC3D0100DC3500205C190020D3
:103CB0002DE9F8430D462749274E00230B6027497D
:103CC000337080460B601746012DB94657F8044FF4
:103CD0001DD92349022220460DF0EDF970B9A378D1
:103CE000003B18BF01231C441E49022220460DF050
:103CF000E2F928B901233370013DE5E70023F2E73B
:103D000017492046FCF7F6FEC0B909F10409002264
:103D10001146D9F804000DF084FA134B0022114625
:103D20001860D9F804000DF07CFA104B10491860A7
:103D30004046FFF711FF0020BDE8F88323782D2BC4
:103D4000E5D16378002BE2D00A49224640460BF0C9
:103D5000D1F8D1E754190020DC3500205819002093
:103D6000C63D0100C93D0100601900205C1900201A
:103D70009D3B0000CC3D010007B509480CF06FFDEC
:103D800058B1042300930649064801233A2200F063
:103D900081FE002003B05DF804FB6FF01200F9E72C
:103DA0006C170100CC18010010B54468C4E900127A
:103DB000A36042684FF48063D36402F15803136335
:103DC00000230821C2E90E33C2E91133C2E90633E8
:103DD000C2E90933D1621468536302F150011364DC
:103DE000116153611362C2F89034A36823B11B6C54
:103DF00013B1054920469847A3681B6A0BB12046BA
:103E00009847002010BD00BF0D3E00002DE9F3478C
:103E100004460D468368DB6B03B19847A368DB6AF1
:103E200043BBDFF8E4A04FF0000805F13009EA6C6D
:103E300001A948460AF081FC0746002835D0A3684E
:103E400001991B6963B3024620469847064600283D
:103E500018BF48F00108314648460AF08DFC0EB103
:103E6000B742E4D0B8F1000F08D0D5E90131002005
:103E7000984703E0204698470028D2D1A368DB6921
:103E800043BB05F11007EA6A01A938460AF0A8FC0D
:103E9000064630BB20460AF043FEC5F890642BE08E
:103EA0006FF057064FF00108D5E7DAF8003013F04D
:103EB000060F04D0154A022150460AF095FDA3686A
:103EC0001B69002BCED001220DF10301204698473B
:103ED0000646C4E7204698470028D2D102B0BDE884
:103EE000F087A3680199DB685BB1024620469847DA
:103EF000014638460AF094FCD5E901310120984783
:103F0000ECE76FF05701F4E7D80800202E3F0100DE
:103F100010B581680446183100F0F2FFA168034A29
:103F200020461831BDE8104000F096BF703F0100F8
:103F30000EB403B5044904AA019200F023FE02B0B6
:103F40005DF804EB03B07047523B01000149FFF7F5
:103F5000EFBF00BF523B01002DE9F04FA9B00DF1BA
:103F60004C0B04465422002158460DF07BF80023E8
:103F7000CDE90733A3682046563304930BF026FBA4
:103F800020460BF084FA10B96069FFF7DFFFA068E4
:103F90001422002118300DF065F820460BF0EFF9DF
:103FA000A168E068B1F85020563100260BF075FE8C
:103FB00020460BF0F4FE4FF0FF37B2460596D84688
:103FC00003963546B146DDE90732012A6AD0132B44
:103FD0006BD847BB039B4BB120460BF001FFA26897
:103FE0001423563213A907A80BF069F8B9F1000F92
:103FF0000CD099F81130FE2B08D1079B28AA02EBB0
:10400000830252F8542C0AB101330793A068436A23
:10401000002B40F0B580CEB1C369B3422DD00F96CE
:1040200000F1180524E0049A0223414608A80BF089
:1040300046F80899D8F804200492034631B10129C2
:104040000AD148B16C4A20460BF03DFB6FF00705E2
:10405000284629B0BDE8F08F079B002B34D0D8F854
:10406000000000F071FF98B166B1A5680F96183591
:104070000EAE0FCE0FC533682B602046FFF748FF0A
:104080000125E5E75D4A012120460BF01CFBDDE739
:10409000079BCBB1D8F800202946204600F0F2FF5C
:1040A000022809D1079B132B94D9089B022B91D18D
:1040B000534B544A0121C6E7032805D0079B01331F
:1040C0000793012303937EE7059B33B9D8F80010CB
:1040D00009AA48460BF0CAF8054608F10408013F52
:1040E00095B3039AEB6842B1F3B120460BF06EFA38
:1040F00020460BF0E3F9444AC5E7ABB1A368DDF80D
:104100001CA0AE4603F1180CBEE80F00ACE80F008F
:10411000DEF80030CCF80030AB682BB96B7CFE2B9E
:1041200004BF2F7C07F1FF37D5F804C0BCF1000FA6
:1041300008D0AE46BEE80F000EAE0FC6DEF8003067
:1041400033606646A94603E0079B53B101230593FC
:104150001FB9089B022B7FF436AF079B01330793EF
:1041600031E7A368DB6A13B1DB68002BEED1274B84
:104170000093274A139B012120460BF0A4FAE5E7A0
:10418000079D90F82830A5EB0A05BBB190F82910DF
:104190004FF6FF72FF2918BF0A469D4202D313440F
:1041A0009D420BD983691B4A012120460BF08BFAF3
:1041B0002046FFF7ADFE6FF0150549E701210AF033
:1041C00084FDA06800F543700AF0ECFDA368294661
:1041D0000BEB8A025B6A204698470546A0684FF0C1
:1041E000FF324FF0FF3300F543700AF020FDA06866
:1041F00000210AF06AFD2BE77E3F0100923F01009B
:10420000F33F0100313A0100B03F0100DF3F010000
:10421000C74201001740010010B5836802221A75D9
:1042200083689B6C0446BBB90AF0D8FC8368D3F85A
:104230007832DB040BD50321084B094A0BF043FA13
:10424000A0686FF4805100F51E700AF0E1FC204672
:10425000BDE8104000F0E2BD10BD00BF32400100DB
:104260003B3C01002DE9F04F04468068B1B00121CC
:1042700000F51E700AF0BDFCA3681B7D022B20D147
:1042800000230993A36860689E6C03681D6909ABED
:104290000EB310221BA9A847099BA0688BB101216E
:1042A0000AF013FD099A1BA92046B047A068002117
:1042B0000AF00BFDA3689B6C002BE3D12046FFF7AF
:1042C000ABFFA0686FF0010100F51E7031B0BDE8D2
:1042D000F04F0AF09DBC01220DF12301A847099B74
:1042E000A268002BEDD09DF923109DF82330002902
:1042F000C8DB517D032900F2E082DFE811F0040001
:1043000061027802DE020D2B58D00A2B56D0B2F88B
:104310007812092B21F4FF61A2F878127AD03DD8E7
:10432000002BAFD0082B00F0F781A268D2F87422DE
:104330009507A7D5013B162BA4D801A252F823F06C
:104340008D480000574700005F4700004F470000BE
:10435000814800007D470000854200008542000042
:104360008542000085420000854700008D4700001F
:104370008542000095470000854200009F470000ED
:104380008542000085420000854200008542000011
:10439000A347000085420000B94700001B2B35D021
:1043A0007F2B00F0C681A3F120025E2ABDD8012137
:1043B000A0680AF095FC9DF82310B3E0D2F87812BB
:1043C000C1F3C70129B1D2F87812C1F3C7018B42FA
:1043D000ABD1B2F8781263F3CA01A2F87812A568DB
:1043E000B5F8501061B928460AF07AFCE0680BF085
:1043F0001BFC6069FFF7AAFD2046FFF70DFF41E7B0
:104400002046FFF7A9FDC5F82403F5E7A3680122BC
:104410005A7537E7A068D0F8743299077FF532AF44
:1044200001210AF05DFCA068B0F85030FF2B3FF48A
:1044300029AFB0F8522000F1560100F5AB700CF036
:10444000EAFDA368B3F852201344002583F85651BF
:10445000A2681BA9142302F5AB720BA80AF02FFE69
:104460000B9914293FF60EAF30AA02EB8102A36824
:1044700042F8545CB3F85220002A00F0248213441E
:1044800093F85530202B00F01A8221B1093B042B00
:104490004DD901294AD100250A950A9B30AA02EB81
:1044A0008303002653F854AC50460AF0D8FBB346B9
:1044B00081463746B04616AA4146284600F076FBAC
:1044C000034600283FD1012ED4F8088064D10A9B0E
:1044D00030AA02EB830353F8540C0AF0C0FB08F136
:1044E000180206463946284600F060FB0568284653
:1044F0000AF0B5FB864205D0821B92B2A91920466C
:104500000BF029F9A068B0F85230034493F8563004
:10451000202B30D0093B042B2DD9D0F87432DA0788
:104520002ED42021204600F041FCABE601390020CA
:104530000CAB009301900AAB1BAA0AF0C2FE054621
:104540000028AAD19EE61B6803934A4651461846A6
:104550000CF0B1FD60B9039B1846FCF7DDFA584535
:1045600038BF58461FFA80FB002E08BF4746013669
:1045700008F101089FE7012120460AF0C2FF81E609
:1045800000210AF000FC2021204600F00FFCA0686A
:1045900001210AF0F8FB75E604907FF673AE0A9AE3
:1045A00030AB03EB8202BA4652F8543C03931846F0
:1045B0000AF055FB049B0690A8F840300496A268C8
:1045C00051461832284600F0F1FA039BD0F80090CB
:1045D000D4F808800AF1010A002B38D0B9F1000F95
:1045E00038D0069A194648460CF065FD0028E6D1F9
:1045F000B7480AF034FBB8F83A2000EB0B0189B257
:10460000121A484692FBF1F292B2059107920AF013
:1046100026FB0599079A091A8BB2B8F84010059342
:10462000481CA8F84000B1FBF2F002FB101189B25F
:1046300000295ED1A64BA74ACDF80090062120465E
:104640000BF041F8059920460AF020FF05E0B9F18A
:10465000000FCDD10023A8F84030049B013B049308
:10466000ADD16069FFF772FC204600F0D7FB0A9BD2
:1046700030AA02EB830307F1010953F8540C0AF046
:10468000EEFA394611AA8046284600F08FFA07460E
:10469000A0683968FF2200F5AB700CF01EFD3B6886
:1046A00003934FF6FF77BA4616AA4946284609F102
:1046B000010B00F07BFA18B3A168036801F25511F1
:1046C000002211F801EF985C704503D110B101325E
:1046D0005245F6D1B8F1000F01D0424507DBBA428E
:1046E00006F1FF36A8BF3A46012E97B208D0D94648
:1046F000DAE7794A4B46062120460AF0E4FFA1E7B3
:10470000002F3FF4BFAD0399A7EB080292B24144DA
:1047100020460BF020F8B5E5A068D0F874329B076E
:104720007FF5B0AD01210AF0DBFA20460BF034F83A
:10473000A8E5A068D0F874329F077FF5A3AD0121EA
:104740000AF0CEFAA368D3F874321E07EDD42046DF
:104750000BF003F896E520460AF041FF92E520466B
:104760000AF034FF20460AF092FE10B96069FFF7A4
:10477000EDFBA06801210AF0B3FA3DE620460AF0FD
:1047800037FF7FE520460AF03EFF7BE5204600F03C
:1047900045FB77E5002120460AF0ACFA72E50121DD
:1047A000F9E720460AF00BFF20460AF017FAA06846
:1047B00001210AF095FA65E5204600F073FAF6E764
:1047C0005B2B02D1022353755CE5D2F8742290076B
:1047D00006D5622B07D14FF0FF3120460AF0B0FE1C
:1047E000A368002214E6662BFAD10121F5E7002127
:1047F0005175A268D2F8741289077FF543AD313B39
:104800001B2B3FF63FAD01A151F823F08948000072
:1048100095480000A94800007D480000854200003E
:10482000854200008542000085420000854200006C
:10483000854200008542000085420000854200005C
:104840008542000085420000854200009F4700002D
:10485000954700007D470000574700008542000053
:1048600081480000854200008D480000854200001C
:1048700085420000854200009948000003235375DB
:1048800020460AF0A3FEFDE40323537520460AF0F8
:1048900096FEF7E403235375A068D0F8741201F074
:1048A000010181F0010174E603235375A368D3F875
:1048B00074329B077FF5E6AC49E7002383E70029C4
:1048C0007FF435AEE7E500297FF4E3ADE3E500BF13
:1048D0003B380100764001003B3C010038B50446FE
:1048E0008068154600F51E70002933D04FF48041D2
:1048F0000AF07FF9A368DD646068036800219B68A3
:104900009847002847D120460AF073FA002842D180
:10491000A06800F52F704FF0FF324FF0FF330321F6
:1049200005F014FAA36805464FF0FF3203F5437013
:104930004FF0FF339DB10AF07AF920462B46164A14
:1049400001210AF0C0FEA068BDE8384000F54370C0
:104950000AF028BA6FF480410AF05AF9CAE70AF05F
:1049600066F90E4A022120460AF063F90C4A2946EC
:1049700020460AF05EF920460A4A01210AF059F958
:10498000606803685B6903B19847A06800F54370ED
:104990000AF008FABCE738BD7C4001007FEC00005B
:1049A00065420000A9ED000010B50B4904460AF06D
:1049B000A1FA204609490AF09DFA204608490AF062
:1049C00099FA204607490AF095FA2046064A00213E
:1049D00000F042FA002010BD93400100D1400100D8
:1049E00030410100844101001E420100F8B5164625
:1049F0000A46214904461F460AF07CFA0025AF42C8
:104A00000ED9725D1D4920460AF074FA0135102D49
:104A10000BD06A07F3D11A4920460AF06BFAEEE789
:104A2000184920460AF066FAF0E7174920460AF0CE
:104A300061FA0025BD4213D2725D1449A2F1200330
:104A40005F2B28BF2E2220460AF054FA0135102D84
:104A50000BD06B07EED10A4920460AF04BFAE9E782
:104A6000074920460AF046FAF0E720460849BDE823
:104A7000F8400AF03FBA00BF344201003438010068
:104A80003C3801003A3801003E380100403801004E
:104A90003B4201002DE9F047044680688846D0F883
:104AA000201388B015461F46002963D192464FF463
:104AB0004A720CF0D7FAE0680BF057F9A06800F5DD
:104AC00043700BF06EFF4FF42F794FF41F76A06800
:104AD00030440CF051FAA0680022831901214844A7
:104AE00010360CF020FAB6F52F7F09F11409EED13B
:104AF000A36900221A60A068022100F51E700AF066
:104B000078F8A36850225A87A36818221A87216868
:104B100020460AF023FA25F03405A368174A65F306
:104B2000070AC3F874A26068036841461D682346FB
:104B3000A8470546D0B9A36801221A75D4E90A012D
:104B400000220023CDE906230E230393109B049536
:104B5000CDE9017300940A4B4FF4006204F020FB8E
:104B6000A368C3F82003616A04F058FA284608B025
:104B7000BDE8F0876FF07705F8E700BF6BEC000049
:104B8000DD48000010B5044613460A4601460648B3
:104B900001F042FA23691B7923B12046BDE8104099
:104BA0000AF02DBA10BD00BF17F0000038B50B4653
:104BB000154648B91449154A521AB3EB920F05D25B
:104BC00051F82350284638BD84680CB90025F9E710
:104BD0000F4A94420AD30F4A944207D218462268D9
:104BE000294690472B68002BECD1EFE70A4A944204
:104BF00002D30A4A944205D3246814225343E51889
:104C0000E358F0E70133F8E7FC18010058190100F8
:104C1000341A0100341A010058190100341A010035
:104C200001490AF013BC00BF523B01002DE9F047D7
:104C30008468054604F15600FBF76EFF002294F8E5
:104C40003C8087B29146668FA6EB0806BE4209DB20
:104C5000002F21DD5632686910492244BDE8F04733
:104C60000AF0F4BB16443444563294F856A084F843
:104C70005690AB680A4968691A440AF0E7FBAB68CA
:104C80003344324683F856A0AC68638FA3EB080325
:104C9000FF1A4FF00008D6E7BDE8F0873B3C010063
:104CA000313A01002DE9F04183680646B3F850001F
:104CB000002841D0B3F8521000293DD0553103F1FE
:104CC00056020B441D46954206D3294611F8014968
:104CD000202C28D0954228D29CB2AFB2E21B92B2CF
:104CE00005F10108511C2944821A40460CF0A1F933
:104CF000B268B2F85030391B13FA81F3A2F8503081
:104D0000B268B2F850301A44002382F85630304668
:104D100009B20AF0F6FB43463046084ABDE8F041C6
:104D200008210AF0D0BC0D46CDE7294611F801490B
:104D3000202CD1D00D46CDE7BDE8F0813B3C0100F1
:104D4000F8B583681746B3F852200D46D3F87412AD
:104D5000563213444A0704461FD51846FBF7DCFEBB
:104D60000646A6B9A368B3F85020A3F85220A0685D
:104D70000AF079FB20B107B115B16069FFF750FF68
:104D80006942204609B2BDE8F8400AF0BABB0549BD
:104D900060690AF05BFB013EE3E7034A08210AF081
:104DA00092FCDFE7C74A01003B3C010013B5836872
:104DB0008DF80710D3F874220446D00725D5B3F830
:104DC0005210B3F850208A421FD0481CA3F852005A
:104DD0000B449DF8072083F85620A368D3F874127B
:104DE000890710D5D3F8743260690B4913F0040FAA
:104DF00018BF2A220AF02AFB20460AF048FB10B10D
:104E00006069FFF70DFF02B010BD01220DF107012F
:104E100020460AF066FCF6E74038010010B504466B
:104E20008368094A02210AF04EFCA368D3F8743261
:104E30009B0707D52046FFF7F9FE2046BDE8104046
:104E40000AF04BBB10BD00BF3B3C010001490AF01A
:104E500011BE00BF523B01002DE9F0410E4600217A
:104E600088B0044617460D4603AA304601F10108F2
:104E7000FFF79CFE80B965B127B13A46082120466C
:104E80000AF021FC002103AA30464F1CFFF78EFEDA
:104E900060B908B0BDE8F081006810B1FBF73CFED6
:104EA00080B2854238BF05464146DDE703688BB1D5
:104EB0001A787AB1D0F804800E4ACDE9005308215F
:104EC0000D4B20460AF0FFFBB8F1000F04D16069DA
:104ED000FFF7BCFF3946D6E72046074B074A0821B3
:104EE0000AF0F1FBAA1D92B2414620460AF0CFFD1E
:104EF000F0E700BF574201007E4D01002F3801004E
:104F0000F7B50F6805460E46AFB13846FBF704FE0D
:104F100084B20B4B0B4A009308213B4628460AF00B
:104F2000D2FB7168E21C92B239B1284603B0BDE8E9
:104F3000F0400AF0ACBD3C46EBE703B0F0BD00BF6B
:104F40007A4D01007740010010B507490446FBF790
:104F5000D1FD38B105492046FBF7CCFDB0FA80F011
:104F6000400910BD0120FCE75E42010061420100E2
:104F700008B5836902491A6809F0BCFF002008BD22
:104F800068420100F7B50C490C4C0D4E054609F07E
:104F9000B1FF0022B44202F1010702D3002003B0A6
:104FA000F0BD636A0093A368064992B2284609F0EF
:104FB000A1FF30343A46EDE778420100CC180100F9
:104FC000FC1801009042010008B5024909F0C6FF33
:104FD000002008BD533B010037B504460025A268F8
:104FE000E0680DF1060302F5AB7201210AF01FFE25
:104FF000BDF80600A36840B12A46064903F5AB7325
:10500000204609F077FF0135E9E783F8560103B040
:1050100030BD00BFA142010010B5044609F0E1FF18
:1050200003490246204609F065FF002010BD00BF7D
:10503000C23D0100022907B50BD1536800931268E5
:105040000B4B0C4909F064FF6FF0150003B05DF8DD
:1050500004FB8368084AD3F87432084913F0020F3E
:10506000074B18BF1A4609F045FF0020EEE700BFC6
:10507000AF420100C4420100AB420100CD42010039
:10508000302F01002DE9F04F074689B015468946BB
:1050900021B110460AF06FFE00285BD1032455E0D1
:1050A0005C463CE029460AF5AB700CF035F8064644
:1050B000002854D0FBF730FD82B2601C013231462B
:1050C00030440BF0B6FF2246594630460BF0A3FFA2
:1050D0004FF020033355BAF8543001331C44AAF87A
:1050E000544008F10108002401994B1C03AA4846CA
:1050F0000193FFF75BFD0646E8B1316800222846C0
:105100000BF008F80028EFD1D6F800B0D7F808A0C7
:10511000BBF1000FC4D05846FBF7FEFC84B2BAF8CE
:1051200054302344FF2BBDDD0E4A2B460321384665
:105130000AF0C9FA0124B8F1000F07D0B8682A466E
:1051400000F1540100F5AB700AF069F8204609B08F
:10515000BDE8F08F4FF0000841460224C5E7022465
:10516000E9E700BFD545010008B5044808F097FFFE
:10517000BDE80840024808F092BF00BF2746010082
:105180005C460100014805F00DB800BF0424010091
:1051900038B5044618B90F4B0F485B6898476168EB
:1051A000B1F5683F10D0B1F5680F0DD00B4DA94295
:1051B0000AD011F46861206807D0014608480BF056
:1051C000A5FB00232360656038BD14220BF04AFF65
:1051D000F9E700BF800600208A4601002C5F5CA929
:1051E000EC21002008B520B34368B3F5683F10D127
:1051F00001220368BFF35B8F53E8001F002903D12E
:1052000043E800200028F7D1BFF35B8F0DD10020C9
:1052100008BD094A93420AD000684FF0FF324FF0B0
:10522000FF3303F073FC0028F1D00448F0E7044892
:10523000EEE76FF4E040EBE72C5F5CA9E98FFFFF3E
:10524000EA8FFFFF08B5D8B14368B3F5683F10D1C6
:1052500000220368BFF35B8F53E8001F012903D1CD
:1052600043E800200028F7D1BFF35B8F0BD100206B
:1052700008BD074A934208D0006803F0BDFCF6E77A
:105280006FF4E040F4E70348F2E70348F0E700BFBB
:105290002C5F5CA9E98FFFFFEA8FFFFF10B5044682
:1052A00018B91D4B1D485B6898476368B3F5683FA4
:1052B0002FD0B3F5680F2CD0194A934219D1236827
:1052C00003BB18484FF0FF324FF0FF33214603F085
:1052D000EFFB08B923681BB90F4B13485B6898476D
:1052E0002068142200210BF0BDFE4FF46863636058
:1052F00008E0B3F5680F0DD83A2B03D040F6BA6238
:105300009342DED120680BF04CFB636843F03A0314
:10531000636010BD054AF3E7800600208A4601005D
:105320002C5F5CA9EC210020B04601003A00003A55
:1053300008B506490648402314220BF0DAFABDE806
:1053400008400449044804F0F1BF00BFEC1C0020F1
:10535000EC2100200C2401002024010038B50C466B
:1053600015460AF04EFD034B43F8305003EBC003E3
:105370005C6038BDE40600202DE9F843054600AF27
:105380000C46002948D0DFF8B890D9F800305A0709
:1053900042D06E468AB0D1E90001A3686A46DFF8C0
:1053A000A4C04FF00508CDE905C0CDE9071342F8C8
:1053B000108F00234FF421514846FDF7D1FDD9F855
:1053C00000305B07B54627D08AB0D4E90301636992
:1053D0006A46DFF874C0CDE90713CDE905C042F88D
:1053E000108F002348464FF42151FDF7B9FDD9F83D
:1053F00000305807B5460FD0E3690121134A4846EB
:1054000009F0FBFAD9F80030590705D0A369104A12
:105410000121484609F0F1FA012D0AD1EFF3058385
:1054200007480268520704D00A4A103B294609F08F
:10543000E4FA2146284603F06DF9BD46BDE8F8833D
:10544000D0080020DD4601000C4701003B47010069
:105450004A4701007847010030BFFFF7FDBF00BF9A
:10546000074A936893F90E10002907DB52699342AB
:105470001FBF044A536843F080535360704700BF16
:105480003023002000ED00E010B52D4C23685A07B2
:1054900003D02C4920460AF0C0FC2B4B9B6A9B0191
:1054A0004BD52368580703D0284925480AF0B5FC96
:1054B0001E20254B9B6AD90107D523685A0703D0C4
:1054C00023491F480AF0A9FC1F201F4B9B6A1B039E
:1054D00007D52368580703D01E4919480AF09DFCD8
:1054E0002120194B9B6A590307D523685A0703D01B
:1054F000194913480AF091FC2220134B9B6A9B0325
:1055000007D52368590703D014490D480AF085FCD4
:1055100023200D4B9B6ADA0307D523685B0703D072
:105520000F4907480AF079FC2420074A936A6FEA7A
:1055300003436FEA1343936210BD1D20B9E700BF18
:10554000D00800208B47010000ED00E0A3470100D8
:10555000B6470100D0470100EE47010013480100A3
:105560002D480100F8B5374C23685B0706460D4609
:1055700003D0354920460AF050FC344B9B6ADF04C7
:1055800051D52368580703D031492E480AF045FC0D
:1055900017202E4B9B6A190507D523685A0703D09D
:1055A0002C4928480AF039FC1820284FBB6A9B0573
:1055B00019D52368580703D0274922480AF02DFC43
:1055C000BB6BBA6A11040DD52268520704D0234A76
:1055D0001C48012109F011FA26B11C4A936A23F4F0
:1055E000004393621920194B9B6A5B0507D523681A
:1055F0005F0703D01A4913480AF00FFC1A20134B17
:105600009A6AD60511D52368590703D015490D4864
:105610000AF003FC1B200D4A936A43F47F43936214
:1056200000232B70F8BD1620B3E79B6A9A04F2D5CD
:1056300023685B0703D00C4902480AF0EEFB1C20EC
:10564000E9E700BFD00800205848010000ED00E065
:105650006E4801007F48010092480100AB480100FC
:10566000C0480100DB480100F34801002DE9F04784
:10567000454D2B68894659078046174603D0434954
:1056800028460AF0CAFB424B9B6ADA0639D52B68DA
:105690005B0703D03F493C480AF0BFFB11243C4B59
:1056A0009B6A1E0707D52B68580703D03A4936482E
:1056B0000AF0B3FB1224DFF8D8A0DAF828309907F3
:1056C00021D52B685A0703D034492F480AF0A5FB8F
:1056D000DAF83460DAF828301B0651D52B685C07FD
:1056E00005D02F4A28483346012109F086F9B9F13F
:1056F000000F04D0264A936A23F080039362132498
:1057000003E01024CBE76FF01506214B9B6AD80706
:1057100007D52B68590703D022491B480AF07DFBA7
:1057200014241B4B9B6A9A0607D52B685B0703D092
:105730001D4915480AF071FB1524154B9A6AD506C8
:1057400002D49A6A90070AD55B68190507D54146C5
:10575000304600F091FA10B180F3098802240C4B16
:105760009A6A920642BF5A6A22F400525A629A6AB0
:1057700042F0FF029A6200233B702046BDE8F087AA
:105780006FF01506BBE700BFD008002022490100DA
:1057900000ED00E0384901007F4801006B4901003D
:1057A0008349010099490100F34801002DE9F041C6
:1057B000764B8AB0D3F8048000AF0446C8F30806DD
:1057C000002585F31188BFF36F8F02F07F43B3F19B
:1057D0007F4F0AD102F00C03082B15D16C480368E7
:1057E000590702D06B490AF018FB00252C4600230C
:1057F000FB71F31E092B00F2A480DFE803F00A9589
:105800009891A2A2A2A2A29B12074CBF0C4601250E
:10581000EDE75F4E33685B0703D05F4930460AF01F
:10582000FCFA0023FB71594BDA6A900708D53368FC
:10583000590703D0594956480AF0EFFA002337E0D8
:10584000DA6A002A04DA33685A07F7D05449F2E7D3
:10585000DB6A5B00F2D53368580703D051494C48E6
:105860000AF0DBFA494BA1695A6942F480725A6125
:10587000BFF34F8FBFF36F8F31F8022C596921F4BA
:1058800080715961BFF34F8FBFF36F8F02F47F4177
:10589000B1F55F4F2ED1D2B2022A2BD1336859070E
:1058A00005D02368404A3A48012109F0A6F8236848
:1058B000FA79DAB907F1080604F1200C206861686A
:1058C000324603C2083464451646F7D17A6A002D81
:1058D00058D0C2F3080121B96FEA52226FEA42227E
:1058E0007A6207F108011846FFF746FD2837BD46E2
:1058F000BDE8F0819A6AD2B22AB1FA1D0121204690
:10590000FFF7B4FE0EE09A6A12F47F4F04D0F91D3F
:105910000120FFF727FE05E09B6AB3F5803F8DD39A
:10592000FFF7B2FD0346C3E7FA1D0021E7E7F91DC3
:105930000020EEE7164803685A073FF47FAF1B4983
:105940007AE7134803685B073FF478AF184A194BAE
:1059500018F4F87FE8468AB008BF13466A4616492D
:10596000CDE905134FF40073ADF82030103E134B12
:10597000079642F8103F00234FF41151FDF7F0FA5B
:10598000C5465BE76FF30802AAE700BF00ED00E041
:10599000D0080020E6490100114A0100284A010010
:1059A000494A0100574A0100764A0100924A010023
:1059B000B8490100CD490100B64A010004000001C8
:1059C000044B5A6942F010025A615A6922F00802E7
:1059D0005A61704700ED00E0EFF30880EFF30981B2
:1059E00001B57246FFF7E2FE01BD00BF002080F363
:1059F0001488BFF36F8F134880F3088801F0E6FE28
:105A0000002011490860BFF34F8F00F033F82020C9
:105A100080F311880D484FF0AA014FF404620AF098
:105A200049FF0A484FF40461401880F30988EFF3F6
:105A300014800221084380F31488BFF36F8F00F0B5
:105A4000E3F800008053002094ED00E0C041002006
:105A50000749D1F890200023C2F307221846934249
:105A600000DB7047C1F89830C1F8A0000133F6E7B9
:105A700000ED00E008B572B6002383F31388FFF74A
:105A8000E7FF144B4FF0FF32C3F88020C3F88420A7
:105A9000C3F88820C3F88C20C3F89020C3F8942062
:105AA000C3F89820C3F89C20C3F88021C3F8842150
:105AB000C3F88821C3F88C21C3F89021C3F894213E
:105AC000C3F89821C3F89C2162B6BFF34F8FBFF390
:105AD0006F8F08BD00E100E0084B9B6883420BD14B
